:100000001BC035C034C01CC332C031C030C02FC08B
:100010002EC0EFC22CC093C52AC029C028C027C05B
:1000200026C025C024C03DC15BC131C27FC1ADC166
:100030002EC2C7C1A2C115C211241FBECFE5D4E094
:10004000DEBFCDBF12E0A0E6B0E0E0E7F1E102C024
:1000500005900D92A435B107D9F723E0A4E5B2E0ED
:1000600001C01D92AB30B207E1F712D27FC8C8CFF2
:10007000CF938091560290E0FC01EE0FFF1FDF014D
:10008000A80FB91FAA0FBB1FAA0FBB1FA857BF4FAE
:1000900018964C91189750E0FD016681778180E6B3
:1000A00090E0CED5C82F811112C0809156028530C4
:1000B00011F54091CF0050E06091CC0070E0605AA3
:1000C0007F4F8091CD009091CE00ACD514C080912F
:1000D000560290E0FC01EE0FFF1FE80FF91FEE0F34
:1000E000FF1FEE0FFF1FE857FF4F608570E080E6AF
:1000F00090E07AD5C1E0E0915402F09155026C2F66
:10010000809156020995CF910895CF93DF93EC012A
:1001100040E26FEF81E006D240E260E081E026D26B
:1001200040E86FEF82E0FED140E860E082E01ED25E
:10013000D0935502C09354028FEF80935602C7D4D8
:10014000DF91CF910895CF92DF92EF92FF920F93BC
:100150001F93CF93DF93E82E082F10E06801CC0C9B
:10016000DD1CE601C00FD11FCC0FDD1FCC0FDD1F42
:10017000C857DF4F4A8150E06881798187E592E076
:1001800051D5FA804D8150E06B817C818F2D90E0BC
:10019000895A9D4F47D56D81F60E8F2D90E042E034
:1001A00050E066E771E0895A9D4F3CD588856B85A4
:1001B00070E0680F711D48E350E080E690E0ADD438
:1001C000F394F3946F2D70E087E592E00DD5E09203
:1001D0005602DF91CF911F910F91FF90EF90DF902A
:1001E000CF900895E8E8F0E0908B8787618B6A5F95
:1001F000678B0895E8E8F0E094AB83AB65AB0895B6
:100200002091CD003091CE00FC01318320830895F0
:1002100040E86FEF82E0AAD140E26FEF81E0A6D123
:10022000089540E260E081E0A1D140E860E082E032
:100230009DD10895CF93DF93C82FD0E0FE01EE0F3C
:10024000FF1FEC5DFE4F61818081B4D1FE01E1585A
:10025000FD4F908191110BC0882319F0108281E02D
:1002600011C0C158DD4F81E0888380E00BC0882336
:1002700029F0C158DD4F188281E004C0C158DD4F1C
:1002800081E08883DF91CF910895E09186028E2FDF
:1002900090E08930910508F0FAC0FC01ED5EFF4F57
:1002A000099480918402909185020196853191058F
:1002B00028F4909385028093840208951092850219
:1002C0001092840221D5811102C00ED102C0811189
:1002D000DEC081E08093860289EF92E0F7D2089534
:1002E000809184029091850201969093850280937B
:1002F0008402059740F0109285021092840287E0F4
:1003000080938602089580918302811108C048E09D
:100310006FEF82E02BD181E080938302089548E063
:1003200060E082E023D110928302089580918402DC
:1003300090918502019690938502809384020B9799
:1003400048F01092850210928402B5D41092860271
:10035000ACD0089580918302811108C048E06FEF0E
:1003600082E004D181E080938302089548E060E058
:1003700082E0FCD010928302089580E05BDF81115F
:1003800086C084E08093860208956EE084EF91E059
:100390004FD5811108C086E08093860210928502B5
:1003A000109284020895823009F071C060E081E00B
:1003B00078D3109285021092840283E080938602A3
:1003C0000895809182028F5F80938202209184023F
:1003D000309185022F5F3F4F309385022093840236
:1003E0008531F8F0109282028CD1811105C01092F3
:1003F00081026FEF56D315C09DEF980F923048F4ED
:1004000099E1909381028093800260E080E049D37B
:1004100008C09FE0909381028093800260E080E0BA
:1004200040D380918402909185020B9748F01092FE
:1004300085021092840260918002809181021AD616
:1004400080E0F8DE811123C01092820210928502B2
:1004500010928402E6DE2FD4BBD388E0809386021C
:1004600008958091840290918502019685369105C8
:1004700028F4909385028093840208951092850257
:100480001092840283E08093860215D4A1D308954C
:100490001092860248E06FEF82E044D00CD485E4ED
:1004A00091E099D07894CED2FFCFCF9380918702FC
:1004B0009091880201969093880280938702C5E00C
:1004C00048E06FEF82E052D082E08A95F1F700C0F9
:1004D00048E060E082E04AD082E08A95F1F700C00F
:1004E000C15071F7CF910895C5E048E06FEF82E009
:1004F0003DD02FEF80E792E0215080409040E1F71F
:1005000000C0000048E060E082E030D02FEF80E7DC
:1005100092E0215080409040E1F700C00000C150BF
:1005200021F7FFCF823071F08330B1F08130E9F4F0
:1005300087B3942F9095892387BB87B36423682B57
:1005400067BB089584B3942F9095892384BB84B3AB
:100550006423682B64BB089581B3942F90958923FD
:1005600081BB81B36423682B61BB0895823071F035
:100570008330B1F08130E9F488B3942F90958923CA
:1005800088BB88B36423682B68BB089585B3942F18
:100590009095892385BB85B36423682B65BB08953B
:1005A00082B3942F9095892382BB82B36423682BF6
:1005B00062BB0895823039F0833041F0813049F4D4
:1005C00086B38623089583B38623089580B3862354
:1005D000089580E0089590938A02809389028EE4C2
:1005E00083BD89B7806889BF15BC85B58F6085BD1F
:1005F00008951F920F920FB60F9211242F933F93DD
:100600004F935F936F937F938F939F93AF93BF931A
:10061000EF93FF93E0918B02F0918C020995FF918B
:10062000EF91BF91AF919F918F917F916F915F916A
:100630004F913F912F910F900FBE0F901F901895E3
:100640001F920F920FB60F9211242F933F934F9347
:100650005F936F937F938F939F93AF93BF93EF932A
:10066000FF93E0918902F0918A020995FF91EF9141
:10067000BF91AF919F918F917F916F915F914F91BA
:100680003F912F910F900FBE0F901F901895CF9311
:10069000DF9300D0CDB7DEB760E070E0CE01019609
:1006A000A4D189819A81813D27E092072CF480337F
:1006B000984F24F080E003C081E001C082E00F90F9
:1006C0000F90DF91CF910895CF93DF9300D0CDB7F6
:1006D000DEB760E070E0CE0101965AD189819A813F
:1006E000813D27E092072CF48033984F24F080E07E
:1006F00003C081E001C082E00F900F90DF91CF91A5
:10070000089580912601813009F06CC0C0DF90917E
:100710009002913071F120F0923009F447C062C02C
:1007200090918F0291110EC0882341F091E0909337
:100730008F0280938E0210928D02C5C081E080935B
:100740008D0255C081114EC010928F0280918E0291
:10075000823031F481E08093900210928D02B3C018
:10076000813009F03FC082E08093900210928D02A8
:10077000AAC090918F02911108C0882399F191E04D
:1007800090938F0280938E022DC081112BC0109206
:100790008F0280918E02823021F481E0809390025A
:1007A00021C08130F9F4109290021CC090918F0208
:1007B000911108C08823B1F091E090938F0280934B
:1007C0008E0210C081110EC010928F0280918E0295
:1007D000823019F41092900205C0813019F482E041
:1007E0008093900280918D02813009F06CC06CDFA3
:1007F00090919002933071F1943009F448C09111B6
:1008000062C090918F0291110EC0882341F091E057
:1008100090938F0280938E021092260154C081E043
:100820008093260150C081114EC010928F0280919A
:100830008E02823031F483E0809390021092260180
:1008400042C0813009F03FC084E080939002109252
:10085000260139C090918F02911108C0882399F127
:1008600091E090938F0280938E022DC081112BC056
:1008700010928F0280918E02823021F483E0809367
:10088000900221C08130F9F4109290021CC0909126
:100890008F02911108C08823B1F091E090938F02EC
:1008A00080938E0210C081110EC010928F02809131
:1008B0008E02823019F41092900205C0813019F432
:1008C00084E0809390028091900208950F931F938B
:1008D000CF93DF938C018091910281112BC0E3E0D3
:1008E000F2E0C1818281C82BC8608381DC2FD82BC4
:1008F0001092920244E060E081E038DE80EAE2D0CB
:1009000080E0E0D0C82F44E06FEF81E02FDEC07FB1
:10091000CD2B44E060E081E029DE80E2D3D08C2F53
:10092000D1D044E06FEF81E021DE809193028F30DF
:1009300001F518C080919302883051F48FE097E25E
:100940000197F1F700C0000081E08093920215C08A
:10095000EFE0F7E23197F1F700C0000081E080930B
:1009600092020BC080919102811103C0F8011082A4
:100970000AC081E0F801808306C0109291028FE0E6
:1009800080939302F3CFDF91CF911F910F91089540
:100990000F931F93CF93DF938C01FB01108244E0F0
:1009A00060E081E0E3DD88EA8DD080E08BD0C82F65
:1009B00044E06FEF81E0DADD44E060E081E0D6DD25
:1009C00089EA80D080E07ED0D82F44E06FEF81E0CC
:1009D000CDDD8C2F90E09D2BF8019183808380E00A
:1009E000DF91CF911F910F9108950F931F93CF9394
:1009F000DF938C01FB01108244E060E081E0B6DD12
:100A00008AEA60D080E05ED0C82F44E06FEF81E0DA
:100A1000ADDD44E060E081E0A9DD8BEA53D080E009
:100A200051D0D82F44E06FEF81E0A0DD8C2F90E013
:100A30009D2BF8019183808380E0DF91CF911F91FE
:100A40000F910895EF92FF920F931F93CF93DF932F
:100A5000C7E2D1E00F2EFBE2EF2EF1E0FF2EF02DEA
:100A600001E010E0A801098002C0440F551F0A945C
:100A7000E2F76FEF888156DDA801098002C0440FBC
:100A8000551F0A94E2F760E0888170DD2296CE154A
:100A9000DF0541F7DF91CF911F910F91FF90EF900C
:100AA0000895E82FF0E0EE0FFF1FE95DFE4F41E0F3
:100AB00050E0018002C0440F551F0A94E2F7808184
:100AC00055DD08958FB9779BFECF8FB108951BB880
:100AD00010BC90B5E4E1F2E0248180E1289F900110
:100AE00011248581880F880F880F822B892B8668B7
:100AF00080BD208131814281538160E271EA87E0CB
:100B000090E012D32150310929B930BD88E18AB96A
:100B100010929502109294020895109299021092E8
:100B2000980290939B0280939A027093970260932D
:100B300096025093950240939402579A08951F92FB
:100B40000F920FB60F9211242F933F934F935F9301
:100B50006F937F938F939F93AF93BF93EF93FF9385
:100B600080919802909199022CB1E0919A02F091B3
:100B70009B02E80FF91F20830196909399028093BE
:100B8000980220919602309197028217930751F4B0
:100B900010929702109296025798E0919402F09169
:100BA00095020995FF91EF91BF91AF919F918F9120
:100BB0007F916F915F914F913F912F910F900FBE59
:100BC0000F901F9018958091980290919902089526
:100BD000579810929902109298025498549A089536
:100BE0005D9BFECF8CB90895EF92FF920F931F93F8
:100BF000CF936115710581F08B017C0120E030E01D
:100C0000C0E0F701E20FF31F8081EADFCF5F2C2FF6
:100C100030E020173107A8F3CF911F910F91FF907B
:100C2000EF9008954115510551F0FB01A82FB92F00
:100C3000640F751F81918D93E617F707D9F7089513
:100C400041155105B1F0FC013081FB0120813213C7
:100C500012C0FC013196DB011196480F591F04C0E8
:100C600021919D91291309C0E417F507C9F780E088
:100C7000089580E0089581E0089581E00895222399
:100C800079F0FC01215030E02F5F3F4F280F391FD2
:100C90009081961301C040833196E217F307C1F7A4
:100CA00008956093F10281E08093F202089581E05B
:100CB00080939D0208951092F5021092F602109210
:100CC000F7021092F8021092F4021092F2021092BF
:100CD0009D0281E08093F1021092F30285E08093FF
:100CE0009E026091430284E492E07CDA60913B02D0
:100CF0008CE392E07FDA81E596E007DA48E06FEF77
:100D000082E010DC85DA08958091F302813059F099
:100D100028F0823079F18330D9F186C079DA81E028
:100D20008093F30208958091F5029091F602A091CC
:100D3000F702B091F8020196A11DB11D8530910511
:100D4000A105B10550F48093F5029093F602A093AB
:100D5000F702B093F80281E008951092F502109224
:100D6000F6021092F7021092F80282E08093F302EA
:100D700081E008951092F202E091F402F0E0E35B6A
:100D8000FD4F8081E0D983E08093F30281E00895F4
:100D90008091F202813019F51092F2028091F102F5
:100DA000811144C08091F4028F5F8093F4028730F8
:100DB00089F48FEE92E024DA2EE04CE26AE380912F
:100DC000EF029091F0025BDF1092F3021092F402B6
:100DD00080E0089582E08093F30281E0089580919D
:100DE000F5029091F602A091F702B091F8020196F7
:100DF000A11DB11D893522E09207A105B10550F46E
:100E00008093F5029093F602A093F702B093F80254
:100E100081E008951092F5021092F6021092F70206
:100E20001092F80282E0089582E0089582E0089529
:100E30008F929F92AF92BF92CF92DF92EF92FF92EA
:100E40000F931F93CF93DF937C01D62F80919C0249
:100E5000813019F138F0823009F4B4C0833009F4DC
:100E60008BC0F4C047E556E060E570E08FE992E0A2
:100E700054DE81E080939C021092F5021092F602FB
:100E80001092F7021092F80210929D0268E070E052
:100E90008AE192E0A9DE81E0E0C095DE982E882309
:100EA00009F441C099278C0103501109101611064D
:100EB0000CF0CEC080E090E0C0E00F2EFFE0AF2E3F
:100EC000F1E0BF2EF02D0F2EF1E1CF2EF1E0DF2E5D
:100ED000F02D6894882481F844E050E064E771E0E4
:100EE00081569D4FADDE811116C072DE1092F50263
:100EF0001092F6021092F7021092F802F501F182B8
:100F0000E082F601D0831092F2028BE01CD980922D
:100F10009C02CDEFC90DCF5F8C2F90E08017910719
:100F2000DCF281E09AC08091F5029091F602A091E6
:100F3000F702B091F8020196A11DB11D8935F2E0CA
:100F40009F07A105B10550F48093F5029093F60236
:100F5000A093F702B093F80281E07FC01092F502EF
:100F60001092F6021092F7021092F80283E080933A
:100F70009C0257D981E071C08091F5029091F602F0
:100F8000A091F702B091F8020196A11DB11D8093C6
:100F9000F5029093F602A093F702B093F80205973A
:100FA000A105B10508F456C013DE85DE1092F502E6
:100FB0001092F6021092F7021092F80210929C0220
:100FC00082E04BC08091F202813011F51092F20262
:100FD0008091F10281110DC010929C021092F502D5
:100FE0001092F6021092F7021092F802F1DD80E002
:100FF00034C0EEDD83E080939C0213D91092F50299
:101000001092F6021092F7021092F80281E025C0C9
:101010008091F5029091F602A091F702B091F8024A
:101020000196A11DB11D8093F5029093F602A09345
:10103000F702B093F80289359240A105B10560F03E
:10104000C7DD83E080939C0281E007C082E005C099
:1010500081E003C081E001C081E0DF91CF911F9169
:101060000F91FF90EF90DF90CF90BF90AF909F9047
:101070008F9008950F931F93CF93DF93182F8AE2D9
:1010800080939F02112361F1C62FD0E0CC0FDD1FAA
:10109000CC0FDD1FC55DDE4F4B8150E0688179814B
:1010A00080EA92E0BFDD6B81E62FF0E0E156FD4F74
:1010B0008DEC189F812D112486958695869590E359
:1010C000980F9183880F982F990F990F890F181BEC
:1010D000105D128385E283838AE084836B5F1BC08B
:1010E0000BE211E0C62FD0E0CC0FDD1FCC0FDD1FCF
:1010F000C55DDE4F4B8150E0F8016081718180EA6F
:1011000092E090DDF8016381E62FF0E0E156FD4FBB
:101110008AE081836E5F70E08FE992E065DDDF91A8
:10112000CF911F910F910895A1E21A2EAA1BBB1B0C
:10113000FD010DC0AA1FBB1FEE1FFF1FA217B307A3
:10114000E407F50720F0A21BB30BE40BF50B661FB9
:10115000771F881F991F1A9469F76095709580957D
:1011600090959B01AC01BD01CF010895F894FFCF8C
:10117000300000000000000000000000000000003F
:10118000000000000000000000000000000000005F
:1011900000000000000000003F0102000000740198
:1011A00004000000420107000000440106000000A6
:1011B0004B010800000054010D000000620108000E
:1011C00000006B010D0000007901070000008101A3
:1011D0000600000C880107000000900106FA0213C7
:1011E00000000000000000000000000000000000FF
:1011F00000009701070000009F0108000000A801FF
:101200000D000000B60108000000BF010D00000045
:10121000CD0108000000900106FA0214D601070073
:101220000000970107000000DE0108000000E70150
:101230000C0000000102010306030723020004283A
:101240000203022B020504300206053602050441A2
:10125000540041542B4E414D453D0041542B524FBB
:101260004C4531002B524F4C453D310D0A4F4B0D33
:101270000A0041542B524F4C4530002B524F4C45E5
:101280003D300D0A4F4B0D0A0041542B5041535332
:10129000002B504153533D0041542B4144445200D4
:1012A0002B414444523D004F4B2B434F4E4E004187
:1012B000542B5459504530002B545950453D300D56
:1012C0000A4F4B0D0A0041542B4E4F544930002B0E
:1012D0004E4F54493D300D0A4F4B0D0A0041542BDF
:1012E000434C4541520041542B434F4E4E00415414
:1012F0002B52454E4557002B52454E45570D0A4F30
:101300004B0D0A00333031342C31312C313831332C
:10131000323500000102040000A42CA42CA42C03EC
:101320000C30000080250000000041542B494E5134
:101330000D0A0053544F5000555000444F574E0073
:101340005249474854004C45465400063132333424
:1013500035360005422D41435400000000030005CE
:04136000010408027A
:00000001FF
