:100000001BC035C034C01CC332C031C030C02FC08B
:100010002EC0EFC22CC093C52AC029C028C027C05B
:1000200026C025C024C030C04EC024C172C0A0C0AC
:1000300021C1BAC095C008C111241FBECFE5D4E0CC
:10004000DEBFCDBF12E0A0E6B0E0E0E7F1E102C024
:1000500005900D92A435B107D9F723E0A4E5B2E0ED
:1000600001C01D92AB30B207E1F705D17FC8C8CF00
:10007000E0915A028E2F90E08930910508F0FAC085
:10008000FC01ED5EFF4F0994809158029091590256
:1000900001968531910528F4909359028093580276
:1000A000089510925902109258022ED6811102C062
:1000B0000ED102C08111DEC081E080935A0289EF27
:1000C00092E004D4089580915802909159020196CB
:1000D0009093590280935802059740F0109259026C
:1000E0001092580287E080935A0208958091570237
:1000F000811108C048E06FEF82E038D281E0809340
:100100005702089548E060E082E030D21092570232
:100110000895809158029091590201969093590246
:10012000809358020B9748F010925902109258028F
:10013000C2D510925A02ACD0089580915702811115
:1001400008C048E06FEF82E011D281E0809357024F
:10015000089548E060E082E009D2109257020895C5
:1001600080E0B5D1811186C084E080935A02089561
:100170006EE08FE391E05CD6811108C086E0809349
:100180005A0210925902109258020895823009F0D2
:1001900071C060E081E085D410925902109258023B
:1001A00083E080935A020895809156028F5F809376
:1001B000560220915802309159022F5F3F4F3093E1
:1001C0005902209358028531F8F01092560299D2C4
:1001D000811105C0109255026FEF63D415C09DEFD9
:1001E000980F923048F499E190935502809354020D
:1001F00060E080E056D408C09FE090935502809361
:10020000540260E080E04DD48091580290915902F0
:100210000B9748F0109259021092580260915402C4
:100220008091550227D780E052D1811123C01092CE
:100230005602109259021092580240D13CD5C8D4AF
:1002400088E080935A020895809158029091590253
:1002500001968536910528F49093590280935802AF
:100260000895109259021092580283E080935A0226
:1002700022D5AED4089510925A0248E06FEF82E082
:1002800051D119D588E390E0A6D17894DBD3FFCF84
:10029000CF9380915B0290915C02019690935C02F7
:1002A00080935B02C5E048E06FEF82E05FD182E0BF
:1002B0008A95F1F700C048E060E082E057D182E023
:1002C0008A95F1F700C0C15071F7CF910895C5E04C
:1002D00048E06FEF82E04AD12FEF80E792E02150B3
:1002E00080409040E1F700C0000048E060E082E01C
:1002F0003DD12FEF80E792E0215080409040E1F720
:1003000000C00000C15021F7FFCFCF9380915F0262
:1003100090E0FC01EE0FFF1FDF01A80FB91FAA0F2D
:10032000BB1FAA0FBB1FA05ABF4F18964C9118971E
:1003300050E0FD016681778182E091E081D4C82F91
:10034000811112C080915F02853011F54091A700A4
:1003500050E06091A40070E06E5F7E4F8091A50038
:100360009091A6005FD414C080915F0290E0FC01E0
:10037000EE0FFF1FE80FF91FEE0FFF1FEE0FFF1F1D
:10038000E05AFF4F608570E082E091E02DD4C1E03B
:10039000E0915D02F0915E026C2F80915F02099501
:1003A000CF910895CF93DF93EC0140E26FEF81E0AE
:1003B000B9D040E260E081E0D9D040E86FEF82E060
:1003C000B1D040E860E082E0D1D0D0935E02C0932B
:1003D0005D028FEF80935F027AD3DF91CF91089512
:1003E000CF92DF92EF92FF920F931F93CF93DF9301
:1003F000E82E082F10E06801CC0CDD1CE601C00FD0
:10040000D11FCC0FDD1FCC0FDD1FC05ADF4F4A813B
:1004100050E06881798180E692E004D4FA804D81D1
:1004200050E06B817C818F2D90E0805A9D4FFAD3F4
:100430006D81F60E8F2D90E042E050E065E871E0AE
:10044000805A9D4FEFD388856B8570E0680F711DD2
:1004500045E851E082E091E060D3F394F3946F2D8E
:1004600070E080E692E0C0D3E0925F02DF91CF912E
:100470001F910F91FF90EF90DF90CF900895E0E6ED
:10048000F0E0908B8787618B6A5F678B0895E0E669
:10049000F0E094AB83AB65AB08952091A50030915B
:1004A000A600FC0131832083089540E86FEF82E0CD
:1004B0005DD040E26FEF81E059D0089540E260E006
:1004C00081E054D040E860E082E050D00895CF93BE
:1004D000DF93C82FD0E0FE01EE0FFF1FE450FF4F67
:1004E0006181808167D0FE01E857FD4F90819111B5
:1004F0000BC0882319F0108281E011C0C857DD4F6E
:1005000081E0888380E00BC0882329F0C857DD4F45
:10051000188281E004C0C857DD4F81E08883DF91F5
:10052000CF910895823071F08330B1F08130E9F4D9
:1005300087B3942F9095892387BB87B36423682B57
:1005400067BB089584B3942F9095892384BB84B3AB
:100550006423682B64BB089581B3942F90958923FD
:1005600081BB81B36423682B61BB0895823071F035
:100570008330B1F08130E9F488B3942F90958923CA
:1005800088BB88B36423682B68BB089585B3942F18
:100590009095892385BB85B36423682B65BB08953B
:1005A00082B3942F9095892382BB82B36423682BF6
:1005B00062BB0895823039F0833041F0813049F4D4
:1005C00086B38623089583B38623089580B3862354
:1005D000089580E0089590938A02809389028EE4C2
:1005E00083BD89B7806889BF15BC85B58F6085BD1F
:1005F00008951F920F920FB60F9211242F933F93DD
:100600004F935F936F937F938F939F93AF93BF931A
:10061000EF93FF93E0918B02F0918C020995FF918B
:10062000EF91BF91AF919F918F917F916F915F916A
:100630004F913F912F910F900FBE0F901F901895E3
:100640001F920F920FB60F9211242F933F934F9347
:100650005F936F937F938F939F93AF93BF93EF932A
:10066000FF93E0918902F0918A020995FF91EF9141
:10067000BF91AF919F918F917F916F915F914F91BA
:100680003F912F910F900FBE0F901F901895CF9311
:10069000DF9300D0CDB7DEB760E070E0CE01019609
:1006A000A4D189819A81813D27E092072CF480337F
:1006B000984F24F080E003C081E001C082E00F90F9
:1006C0000F90DF91CF910895CF93DF9300D0CDB7F6
:1006D000DEB760E070E0CE0101965AD189819A813F
:1006E000813D27E092072CF48033984F24F080E07E
:1006F00003C081E001C082E00F900F90DF91CF91A5
:10070000089580912A01813009F06CC0C0DF90917A
:100710009002913071F120F0923009F447C062C02C
:1007200090918F0291110EC0882341F091E0909337
:100730008F0280938E0210928D02C5C081E080935B
:100740008D0255C081114EC010928F0280918E0291
:10075000823031F481E08093900210928D02B3C018
:10076000813009F03FC082E08093900210928D02A8
:10077000AAC090918F02911108C0882399F191E04D
:1007800090938F0280938E022DC081112BC0109206
:100790008F0280918E02823021F481E0809390025A
:1007A00021C08130F9F4109290021CC090918F0208
:1007B000911108C08823B1F091E090938F0280934B
:1007C0008E0210C081110EC010928F0280918E0295
:1007D000823019F41092900205C0813019F482E041
:1007E0008093900280918D02813009F06CC06CDFA3
:1007F00090919002933071F1943009F448C09111B6
:1008000062C090918F0291110EC0882341F091E057
:1008100090938F0280938E0210922A0154C081E03F
:1008200080932A0150C081114EC010928F02809196
:100830008E02823031F483E08093900210922A017C
:1008400042C0813009F03FC084E080939002109252
:100850002A0139C090918F02911108C0882399F123
:1008600091E090938F0280938E022DC081112BC056
:1008700010928F0280918E02823021F483E0809367
:10088000900221C08130F9F4109290021CC0909126
:100890008F02911108C08823B1F091E090938F02EC
:1008A00080938E0210C081110EC010928F02809131
:1008B0008E02823019F41092900205C0813019F432
:1008C00084E0809390028091900208950F931F938B
:1008D000CF93DF938C018091910281112BC0E3E0D3
:1008E000F2E0C1818281C82BC8608381DC2FD82BC4
:1008F0001092920244E060E081E038DE80EAE2D0CB
:1009000080E0E0D0C82F44E06FEF81E02FDEC07FB1
:10091000CD2B44E060E081E029DE80E2D3D08C2F53
:10092000D1D044E06FEF81E021DE809193028F30DF
:1009300001F518C080919302883051F48FE097E25E
:100940000197F1F700C0000081E08093920215C08A
:10095000EFE0F7E23197F1F700C0000081E080930B
:1009600092020BC080919102811103C0F8011082A4
:100970000AC081E0F801808306C0109291028FE0E6
:1009800080939302F3CFDF91CF911F910F91089540
:100990000F931F93CF93DF938C01FB01108244E0F0
:1009A00060E081E0E3DD88EA8DD080E08BD0C82F65
:1009B00044E06FEF81E0DADD44E060E081E0D6DD25
:1009C00089EA80D080E07ED0D82F44E06FEF81E0CC
:1009D000CDDD8C2F90E09D2BF8019183808380E00A
:1009E000DF91CF911F910F9108950F931F93CF9394
:1009F000DF938C01FB01108244E060E081E0B6DD12
:100A00008AEA60D080E05ED0C82F44E06FEF81E0DA
:100A1000ADDD44E060E081E0A9DD8BEA53D080E009
:100A200051D0D82F44E06FEF81E0A0DD8C2F90E013
:100A30009D2BF8019183808380E0DF91CF911F91FE
:100A40000F910895EF92FF920F931F93CF93DF932F
:100A5000CEEFD0E00F2EF2E0EF2EF1E0FF2EF02DE2
:100A600001E010E0A801098002C0440F551F0A945C
:100A7000E2F76FEF888156DDA801098002C0440FBC
:100A8000551F0A94E2F760E0888170DD2296CE154A
:100A9000DF0541F7DF91CF911F910F91FF90EF900C
:100AA0000895E82FF0E0EE0FFF1FE250FF4F41E006
:100AB00050E0018002C0440F551F0A94E2F7808184
:100AC00055DD08958FB9779BFECF8FB108951BB880
:100AD00010BC90B5E4E1F2E0248180E1289F900110
:100AE00011248581880F880F880F822B892B8668B7
:100AF00080BD208131814281538160E271EA87E0CB
:100B000090E012D32150310929B930BD88E18AB96A
:100B100010929502109294020895109299021092E8
:100B2000980290939B0280939A027093970260932D
:100B300096025093950240939402579A08951F92FB
:100B40000F920FB60F9211242F933F934F935F9301
:100B50006F937F938F939F93AF93BF93EF93FF9385
:100B600080919802909199022CB1E0919A02F091B3
:100B70009B02E80FF91F20830196909399028093BE
:100B8000980220919602309197028217930751F4B0
:100B900010929702109296025798E0919402F09169
:100BA00095020995FF91EF91BF91AF919F918F9120
:100BB0007F916F915F914F913F912F910F900FBE59
:100BC0000F901F9018958091980290919902089526
:100BD000579810929902109298025498549A089536
:100BE0005D9BFECF8CB90895EF92FF920F931F93F8
:100BF000CF936115710581F08B017C0120E030E01D
:100C0000C0E0F701E20FF31F8081EADFCF5F2C2FF6
:100C100030E020173107A8F3CF911F910F91FF907B
:100C2000EF9008954115510551F0FB01A82FB92F00
:100C3000640F751F81918D93E617F707D9F7089513
:100C400041155105B1F0FC013081FB0120813213C7
:100C500012C0FC013196DB011196480F591F04C0E8
:100C600021919D91291309C0E417F507C9F780E088
:100C7000089580E0089581E0089581E00895222399
:100C800079F0FC01215030E02F5F3F4F280F391FD2
:100C90009081961301C040833196E217F307C1F7A4
:100CA00008956093F10281E08093F202089581E05B
:100CB00080939D0208951092F5021092F602109210
:100CC000F7021092F8021092F4021092F2021092BF
:100CD0009D0281E08093F1021092F30285E08093FF
:100CE0009E026091220283E292E0C9DB60911A02C7
:100CF0008BE192E0CCDB81E596E054DB48E06FEFDE
:100D000082E010DCD2DB08958091F302813059F04B
:100D100028F0823079F18330D9F186C0C6DB81E0DA
:100D20008093F30208958091F5029091F602A091CC
:100D3000F702B091F8020196A11DB11D8530910511
:100D4000A105B10550F48093F5029093F602A093AB
:100D5000F702B093F80281E008951092F502109224
:100D6000F6021092F7021092F80282E08093F302EA
:100D700081E008951092F202E091F402F0E0E45D67
:100D8000FD4F80812DDB83E08093F30281E00895A5
:100D90008091F202813019F51092F2028091F102F5
:100DA000811144C08091F4028F5F8093F4028730F8
:100DB00089F48FEE92E071DB2EE04CE26AE38091E1
:100DC000EF029091F0025BDF1092F3021092F402B6
:100DD00080E0089582E08093F30281E0089580919D
:100DE000F5029091F602A091F702B091F8020196F7
:100DF000A11DB11D893522E09207A105B10550F46E
:100E00008093F5029093F602A093F702B093F80254
:100E100081E008951092F5021092F6021092F70206
:100E20001092F80282E0089582E0089582E0089529
:100E30008F929F92AF92BF92CF92DF92EF92FF92EA
:100E40000F931F93CF93DF937C01D62F80919C0249
:100E5000813019F138F0823009F4B4C0833009F4DC
:100E60008BC0F4C047E556E060E570E08FE992E0A2
:100E700054DE81E080939C021092F5021092F602FB
:100E80001092F7021092F80210929D0268E070E052
:100E900083E392E0A9DE81E0E0C095DE982E88230E
:100EA00009F441C099278C0103501109101611064D
:100EB0000CF0CEC080E090E0C0E00F2EF7EEAF2E39
:100EC000F0E0BF2EF02D0F2EF9EECF2EF0E0DF2E4A
:100ED000F02D6894882481F844E050E063E871E0E4
:100EE00081569D4FADDE811116C072DE1092F50263
:100EF0001092F6021092F7021092F802F501F182B8
:100F0000E082F601D0831092F2028BE069DA8092DF
:100F10009C02CDEFC90DCF5F8C2F90E08017910719
:100F2000DCF281E09AC08091F5029091F602A091E6
:100F3000F702B091F8020196A11DB11D8935F2E0CA
:100F40009F07A105B10550F48093F5029093F60236
:100F5000A093F702B093F80281E07FC01092F502EF
:100F60001092F6021092F7021092F80283E080933A
:100F70009C02A4DA81E071C08091F5029091F602A2
:100F8000A091F702B091F8020196A11DB11D8093C6
:100F9000F5029093F602A093F702B093F80205973A
:100FA000A105B10508F456C013DE85DE1092F502E6
:100FB0001092F6021092F7021092F80210929C0220
:100FC00082E04BC08091F202813011F51092F20262
:100FD0008091F10281110DC010929C021092F502D5
:100FE0001092F6021092F7021092F802F1DD80E002
:100FF00034C0EEDD83E080939C0260DA1092F5024B
:101000001092F6021092F7021092F80281E025C0C9
:101010008091F5029091F602A091F702B091F8024A
:101020000196A11DB11D8093F5029093F602A09345
:10103000F702B093F80289359240A105B10560F03E
:10104000C7DD83E080939C0281E007C082E005C099
:1010500081E003C081E001C081E0DF91CF911F9169
:101060000F91FF90EF90DF90CF90BF90AF909F9047
:101070008F9008950F931F93CF93DF93182F8AE2D9
:1010800080939F02112361F1C62FD0E0CC0FDD1FAA
:10109000CC0FDD1FC55DDE4F4B8150E0688179814B
:1010A00080EA92E0BFDD6B81E62FF0E0E156FD4F74
:1010B0008DEC189F812D112486958695869590E359
:1010C000980F9183880F982F990F990F890F181BEC
:1010D000105D128385E283838AE084836B5F1BC08B
:1010E0000BE211E0C62FD0E0CC0FDD1FCC0FDD1FCF
:1010F000C55DDE4F4B8150E0F8016081718180EA6F
:1011000092E090DDF8016381E62FF0E0E156FD4FBB
:101110008AE081836E5F70E08FE992E065DDDF91A8
:10112000CF911F910F910895A1E21A2EAA1BBB1B0C
:10113000FD010DC0AA1FBB1FEE1FFF1FA217B307A3
:10114000E407F50720F0A21BB30BE40BF50B661FB9
:10115000771F881F991F1A9469F76095709580957D
:1011600090959B01AC01BD01CF010895F894FFCF8C
:101170004E0102000000830104000000510107003D
:1011800000005301060000005A010800000063013E
:101190000D0000007101080000007A010D00000040
:1011A00088010700000090010600000C970107006D
:1011B00000009F0106FA021300000000000000007A
:1011C00000000000000000000000A6010700000071
:1011D000AE0108000000B7010D000000C5010800C5
:1011E0000000CE010D000000DC01080000009F019E
:1011F00006FA0214E50107000000A601070000003E
:10120000ED0108000000F6010C00000001020306D9
:101210000307300000000000000000000000000094
:1012200000000000000000000000000000000000BE
:1012300000000000000000000000013C020004412A
:1012400002030244020504490206054F0205043365
:101250003031342C31312C31383133323500415476
:101260000041542B4E414D453D0041542B524F4CB3
:101270004531002B524F4C453D310D0A4F4B0D0A65
:101280000041542B524F4C4530002B524F4C453DA2
:10129000300D0A4F4B0D0A0041542B50415353005F
:1012A0002B504153533D0041542B41444452002B99
:1012B000414444523D004F4B2B434F4E4E0041544E
:1012C0002B5459504530002B545950453D300D0A90
:1012D0004F4B0D0A0041542B4E4F544930002B4EBA
:1012E0004F54493D300D0A4F4B0D0A0041542B43DA
:1012F0004C4541520041542B434F4E4E0041542B1C
:1013000052454E4557002B52454E45570D0A4F4BFF
:101310000D0A00000102040000A42CA42CA42C033C
:101320000C300000802500000000063132333435D7
:10133000360005422D414354000000000300050122
:1013400004080241542B494E510D0A0053544F508A
:1013500000555000444F574E005249474854004CE6
:0413600045465400AA
:00000001FF
